:020000040800F2
:1000000060050020CD010008D1010008D3010008DF
:10001000D5010008D7010008D90100080000000040
:10002000000000000000000000000000DB010008EC
:10003000DD01000800000000DF010008E101000808
:10004000E3010008E3010008E3010008E301000800
:10005000E3010008E3010008E3010008E3010008F0
:10006000E3010008E3010008E3010008E3010008E0
:10007000E3010008E3010008E3010008E3010008D0
:10008000E3010008E3010008E3010008E3010008C0
:10009000E3010008E3010008E3010008E3010008B0
:1000A000E3010008E3010008E3010008E3010008A0
:1000B000E3010008E3010008E3010008E301000890
:1000C000E3010008E3010008E3010008E301000880
:1000D000E3010008E3010008E3010008E301000870
:1000E000E3010008E3010008E301000800F002F862
:1000F00000F05CF80AA090E8000C82448344AAF166
:100100000107DA4501D100F051F8AFF2090EBAE863
:100110000F0013F0010F18BFFB1A43F0010318473B
:1001200000340000203400000A444FF0000C10F8A6
:10013000013B13F0070408BF10F8014B1D1108BF65
:1001400010F8015B641E05D010F8016B641E01F805
:10015000016BF9D113F0080F1EBF10F8014BAD1C55
:100160000C1B09D16D1E58BF01F801CBFAD505E073
:1001700014F8016B01F8016B6D1EF9D59142D6D3CD
:10018000704700000023002400250026103A28BFF5
:1001900078C1FBD8520728BF30C148BF0B607047F9
:1001A0001FB503F0E1F81FBD10B510BD01F010FC44
:1001B0001146FFF7F5FF00F0C1FA01F02EFC03B481
:1001C000FFF7F2FF03BC01F035FC000008480047D0
:1001D000FEE7FEE7FEE7FEE7FEE7FEE7FEE7FEE7F7
:1001E000FEE7FEE703480449024A044B704700005B
:1001F000ED0000086003002060050020600300207F
:1002000010B501F083FD4FF4803001F011FE01F0D4
:1002100057FE0446012C2AD1102001F013FC0220C5
:1002200001F01CFC002001F0F9FD002001F024FE8B
:10023000A00201F017FEA00301F046FD4FF4E0110B
:10024000200401F029FEA00301F03EFD012001F091
:100250001DFE00BF392001F0C1FD0028FAD00220A8
:1002600001F024FE00BF01F0D1FD0828FBD110BD34
:1002700010B500214FF0006001F01CFD10BD70B5FD
:1002800005466FF0010001F041FE002001F060FE24
:100290006FF0040001F02EFE42F2283005FB00F65C
:1002A000304601F061FE002001F030FE012001F037
:1002B0002DFE00BF102001F03BFE0446002CF9D0BB
:1002C0006FF0010001F022FE002001F01FFE70BD62
:1002D0000020012017E0FB4951F82010B1F5FA6F1A
:1002E00004DD4FF4FA61F74A42F82010F54951F85D
:1002F0002010B1F57A7F04DA4FF47A71F14A42F8AE
:100300002010411CC8B20528E5DBEE494968EE4AD9
:100310001180EC4989684FF08042A2F83814E9490D
:10032000C968A2F83C14E7490969A2F8401470476B
:1003300010B5E64801F05CFE401CE54948804FF0EE
:10034000804001F057FE401CE14988804FF080401A
:1003500001F052FEDE498988401A401CDC49C88001
:100360004FF0804001F04AFED949C988401AD84967
:100370008988401A401CD649088110BD2DE9F04FEC
:1003800087B0D4490978D34A527801EB022108B2E8
:1003900002F087FCD04A03C2CE498978CD4AD27890
:1003A00001EB022108B202F07CFCCC4A03C2C9492D
:1003B0000979C84A527901EB022108B202F071FCB6
:1003C000C74A03C2C7490978C64A527801EB0221DD
:1003D00008B202F066FCC44A03C2C2498978C14A25
:1003E000D27801EB022108B202F05BFCBF4A03C2E3
:1003F000BC490979BB4A527901EB022108B202F0EB
:1004000050FCBB4A03C2B449D1E9008181F00041EC
:100410004FF03332B74B404602F096FCAE4A03C26F
:100420004FF03332B34BAD4903C902F08DFCAB4AF8
:1004300003C24FF03332AF4BA94903C902F084FC29
:10044000A74A03C2AC4AAD4BA34903C902F0E8F97D
:10045000A14A03C2AA4AAB4BA04903C902F0E0F982
:100460009E4A03C2A84AA94B9D4903C902F0D8F984
:100470009B4A03C20022A64B9B4903C902F064FCBD
:1004800080460022A34B02F085FA974A03C200225D
:100490009F4B964903C902F057FC804600229D4BB2
:1004A00002F078FA914A03C20022994B904903C99D
:1004B00002F04AFC80460022964B02F06BFA8C4A0E
:1004C00003C2864801460CC803C902F03DFC8046C1
:1004D0008946834801460CC803C902F035FC8246B0
:1004E00042464B4602F09CF9CDE9000102F072F958
:1004F00002460B46CDE90201774903C902F0AAF88A
:10050000854A864BCDE9040102F01EFC844A03C2F1
:10051000714801460CC803C902F016FCCDE9000180
:100520006F4801460CC803C902F00EFC8046DDE9A5
:10053000002302F075F9CDE9020102F04BF9824681
:1005400002460B46654903C902F084F8724A734BB0
:10055000CDE9040102F0F8FB724A03C27149D1E906
:10056000004121F000456E49D1E9006121F00047CA
:10057000002213465A4903C902F0AAFB69D200229D
:100580001346674903C902F0A3FB19D200224FF0BA
:1005900080432046294602F0D7FB80460022624B6A
:1005A00002F006FD82460B465D4903C981F0004119
:1005B0005246CDE9040102F0EDFD594A03C213E0B1
:1005C00000224FF080432046294602F0BDFB8246C0
:1005D0000022554B02F0ECFC804651480CC84046C6
:1005E00002F0D8FD4E4A03C2002213464D4903C90A
:1005F00002F06EFB19D200224FF08043304639469C
:1006000002F0A2FB82460022474B02F0D1FC80465A
:100610000B46444903C981F000414246CDE904013B
:1006200002F0B8FD3F4A03C213E000224FF08043BE
:100630003046394602F088FB804600223A4B02F0F1
:10064000B7FC824637480CC8504602F0A3FD354A35
:1006500003C2364A364B244903C902F075FB804673
:1006600034480CC8404602F0DBF8324A03C22F4A35
:100670002F4B1E4903C902F067FB80462E480CC869
:10068000404602F0CDF82C4A03C207B0BDE8F08F17
:1006900010B5FFF7B5FDFFF7EBFD01210D2001F0CF
:1006A00029FB0121072001F019FB00F04FFC00F0AD
:1006B0007DFA00F017FA00F0FDFA00F0D3FB00F02D
:1006C000E7FB10BD0000002034040040000800409B
:1006D000F00200202C000020380000204000002004
:1006E000480000206000002068000020700000200A
:1006F0007800002033330F400C022B8716C94E4080
:10070000F1F44A5986982B40A167B3EA733D5940EA
:100710000080514000408F40AA9F9622DCA54C40AB
:100720005800002050000020008066407B14AE4737
:10073000E17A943F80000020880000201CB500264C
:100740000027FFF7A5FF0821C84801F007FA00BFFE
:10075000FFF7EEFDC64840889B28F9DCC448408876
:100760009128F5DBC24880889B28F1DCC04880884E
:100770009128EDDBBE48C0886B28E9DCBC48C08806
:100780006728E5DBBA4800899B28E1DCB848008986
:100790009128DDDB41F28830FFF771FD00BFB448DE
:1007A00040889B28FBDCB24840889128F7DBB048A2
:1007B00080889B28F3DCAE4880889128EFDBAC482A
:1007C000C0886B28EBDCAA48C0886728E7DBA8480C
:1007D00000899B28E3DCA64800899128DFDB0821FB
:1007E000A24801F0BDF9012613E0A24850F82610F6
:1007F0009F48C088963800EB800001EB40009D497F
:1008000041F82600084650F826009B4941F826008A
:10081000761C052EE9DB9648C08898490860FFF7EA
:1008200057FD22E17F1C052F03D108218F4801F0DD
:1008300095F90A2F04D108218C4801F091F900277D
:100840008F4800F040FB8F4800F05EFBFFF796FDFD
:100850008D4803C8CDE900018C480CC88C4800F0D5
:100860008DFB8C4A03C28C4803C8CDE900018B483C
:100870000CC88B4800F082FB8A4A03C2FFF758FD80
:10088000012610E07A4830F81600CD2804DC7848BC
:1008900030F816005F2805DA032E03D0962074493D
:1008A00021F81600761C052EECDB01260FE07148BE
:1008B00050F826006E49C988704A1268891A01EBFF
:1008C000810100EB41006B4941F82600761C052EA2
:1008D000EDDB6748C0886949086065498988A1F1EE
:1008E000960002F0DEF904466F4A704B02F02CFAD3
:1008F0006F4A03C25E490989A1F1960002F0D1F95D
:100900000446694A694B02F01FFA6A4A03C2614809
:1009100067490CC803C902F03DFC674A03C261483D
:1009200064490CC803C902F035FC644A03C262483A
:100930000CC8634800F0D8FF624A03C25F480CC885
:10094000614800F0D1FF614A03C20022604B514967
:1009500003C902F0F7FA3DD200225E4B4D4903C9AC
:1009600002F0B6F936D25C4A5C4B564903C902F034
:10097000E9FA2FD2584A5A4B524903C902F0A8F952
:1009800028D20022524B474903C902F0DBFA21D298
:100990000022504B434903C902F09AF91AD24E4A39
:1009A0004E4B4A4903C902F0CDFA13D24A4A4C4B86
:1009B000464903C902F08CF90CD22F4840682D49F2
:1009C00048602D48C068C8602B48806888602A4805
:1009D000006908612749486802F063F9044639480C
:1009E0000CC8204601F01CFF804602F02BF922497A
:1009F00048602049C86802F054F9804631480CC864
:100A0000404602F0C7FB044602F01CF91A49C860D0
:100A10001849886802F045F904462C480CC820465D
:100A200001F0FEFE804602F00DF91349886011497D
:100A3000086902F036F9044624480CC8204602F042
:100A4000A9FB804602F0FEF80B4908610848C088FF
:100A50006B2805DC4FF47A700861C86088604860D4
:100A6000FFF736FC1220FFF70AFCDBE6000C014022
:100A7000F0020020140000200000002028000020C8
:100A80002C000020600000205000002068000020A2
:100A9000980000204802002058000020700000202C
:100AA0007001002050020020CDCCCCCCCCCCECBFCF
:100AB000580200206002002068020020700200201E
:100AC00078020020D8020020A8020020E0020020C6
:100AD0000000F0BF0000F03F9A9999999999C9BF19
:100AE0009999C93F00B589B0C020ADF82000182001
:100AF0008DF8230003208DF8220008A9284800F073
:100B0000B9FF0320ADF8200008A9264800F0B2FF85
:100B100044F61F60ADF818004820ADF8140000201E
:100B2000ADF81A00ADF8160005A91F4801F0F0FB5A
:100B30007020ADF804000120ADF806004FF47A7083
:100B4000ADF80A000220ADF80C0001A9164801F02A
:100B5000B1FA01A9144801F0E3FA01A9124801F021
:100B600025FB01A9104801F063FB08210E4801F0A4
:100B7000D1FA08210C4801F011FB08210A4801F0C4
:100B800051FB0821084801F083FB0121064801F0D0
:100B900019FA0121044801F020FA09B000BD000053
:100BA00000080140000C01400004004000B587B07F
:100BB0000E20ADF8000004208DF8030069463A4885
:100BC00000F058FF4020ADF800006946374800F0BB
:100BD00051FF4FF6FF70ADF814004FF43470ADF8CC
:100BE00010000020ADF81600ADF8120004A94FF077
:100BF000804001F08DFB04A92D4801F089FB022003
:100C0000ADF806000120ADF808000020ADF80A009C
:100C10000420ADF80C000020ADF8040001A9244820
:100C200001F0EFF90420ADF8040001A9000701F07C
:100C3000E8F90820ADF8040001A9C00601F0E1F9C7
:100C40000C20ADF8040001A94FF0804001F0D9F963
:100C50005021880601F023FB0421080701F02DFB39
:100C60008021C80501F021FB01221C21900701F021
:100C700019FA40210E4801F012FB04210C4801F042
:100C80001CFB80210A4801F010FB012202210848C8
:100C900001F008FA0121880701F09FF901210448B9
:100CA00001F09BF907B000BD00080140000C0140B5
:100CB0000008004000B585B00121880501F00EF85C
:100CC0004FF44060ADF8100002208DF812001C2097
:100CD0008DF8130004A95E4800F0CCFE0020ADF8AA
:100CE00000004BF6FF70ADF80200A620ADF804003E
:100CF0004FF48060ADF806000001ADF808005548DB
:100D000003900121544800F043FF6946524800F027
:100D100069FF05B000BD70B504460E4615460121B9
:100D20004D4800F03FFF00BF4C494B4800F024FF06
:100D30000028F9D000222146474800F0B0FF00BF4C
:100D40004749454800F018FF0028F9D0314642488D
:100D500000F0ADFF00BF4249891C3F4800F00CFF86
:100D60000028F8D029463C4800F0A1FF00BF3C49CC
:100D7000891C394800F000FF0028F8D001213648CE
:100D800000F01AFF70BD70B504460D4600BF4FF469
:100D90000031314800F01AFF0028F8D101212E4817
:100DA00000F000FF00BF2D492B4800F0E5FE0028B1
:100DB000F9D000222146284800F071FF00BF2849E1
:100DC000254800F0D9FE0028F9D00121224800F082
:100DD000DFFE2946204800F06AFF00BF2049891C39
:100DE0001D4800F0C9FE0028F8D001211A4800F083
:100DF000D9FE00BF1949184800F0BEFE0028F9D0FE
:100E000001222146144800F04AFF00BF1349491C43
:100E1000114800F0B1FE0028F8D000210E4800F083
:100E2000A1FE01210C4800F0C7FE00BF0B493F3175
:100E3000094800F0A1FE0028F8D0074800F02CFF78
:100E400006460121044800F08DFE304670BD0000CA
:100E5000000C0140400D0300005800400100030059
:100E60008200070010B50A222C21A620FFF753FFAD
:100E700008222D21A620FFF74EFF0B223121A620AC
:100E8000FFF749FF80222E21A620FFF744FF10BD67
:100E900010B5FF222021D220FFF73DFF03222121A0
:100EA000D220FFF738FF08222221D220FFF733FF9C
:100EB00030222321D220FFF72EFF00222421D2202E
:100EC000FFF729FF10BD10B504463221A620FFF719
:100ED0005AFF20703321A620FFF755FF60703421A0
:100EE000A620FFF750FFA0703521A620FFF74BFF8B
:100EF000E0703621A620FFF746FF20713721A6209B
:100F0000FFF741FF607110BD10B504462821D220C3
:100F1000FFF739FF20702921D220FFF734FF6070DE
:100F20002A21D220FFF72FFFA0702B21D220FFF71C
:100F30002AFFE0702C21D220FFF725FF20712D2100
:100F4000D220FFF720FF607110BD000008B5082017
:100F5000ADF8000048208DF8030003208DF8020052
:100F60006946044800F086FD0121034800F0D2FDE7
:100F700008BD0000000C0140000430001FB59AB00D
:100F8000202112A800F0E4FC00BF1A98D0E900125A
:100F9000C0E904121A98D0E90212C0E906121A999F
:100FA000D1E91001CDE90A01DDE91C2301F0CCFEF5
:100FB000CDE90E011A9800F110018069C968CDE9E8
:100FC00006011A9800F12001806AC968CDE9040180
:100FD000DDE9062301F0B8FECDE90A011A99D1E94D
:100FE0000401CDE906011A99D1E90801CDE904010E
:100FF000DDE9062301F0A8FECDE90801DDE90A23B9
:1010000001F00EFCCDE90C01DDE90E2301F008FC36
:101010001A9A03C21A9800F14001806CC968CDE9A0
:101020000A01DDE91C2301F08FFECDE90E011A98BB
:1010300000F110018069C968CDE906011A9800F134
:101040003001806BC968CDE90401DDE9062301F0B8
:101050007BFECDE90A011A99D1E90401CDE9060127
:101060001A9800F12001006B4969CDE90401DDE91E
:10107000062301F069FECDE90801DDE90A2301F04C
:10108000CFFBCDE90C01DDE90E2301F0C9FB1A9A73
:10109000C2E902011A9850F8882F40681A9941F85D
:1010A000A82F48601A988830D0E902211A98A830F1
:1010B000C0E902211A988830D0E904211A98A83092
:1010C000C0E904211A988830D0E906121A98A8308D
:1010D000C0E906121A9800F1A801D1E90401CDE98E
:1010E0000A011A9800F12001806AC968CDE9080157
:1010F000DDE90A2301F028FECDE90E011A9951F825
:10110000A80F4968CDE90A011A99D1E90801CDE98A
:101110000801DDE90A2301F017FECDE90C01DDE944
:101120000E2301F07DFBCDE912011A9800F1B80100
:10113000D1E90201CDE90A011A9800F12001806A83
:10114000C968CDE90801DDE90A2301F0FDFDCDE91B
:101150000E011A9800F1A801D1E90201CDE90A01B6
:101160001A99D1E90801CDE90801DDE90A2301F066
:10117000EBFDCDE90C01DDE90E2301F051FBCDE9DA
:1011800014011A9800F1A801D1E90401CDE90A017E
:101190001A98D0E90E120846CDE9080209A90EC92D
:1011A00001F0D2FDCDE90E011A9951F8A80F496856
:1011B000CDE90A011A9800F12001006B4969CDE9D7
:1011C0000801DDE90A2301F0BFFDCDE90C01DDE9ED
:1011D0000E2301F025FBCDE916011A9800F1B801A4
:1011E000D1E90201CDE90A011A9800F13001806BC2
:1011F000C968CDE90801DDE90A2301F0A5FDCDE9C3
:101200000E011A9800F1A801D1E90201CDE90A0105
:101210001A98D0E90C12CDE90812084609A90EC99E
:1012200001F092FDCDE90C01DDE90E2301F0F8FAA1
:10123000CDE918011A9800F12001006B4969CDE948
:101240000801DDE91401CDE90601DDE9082301F01B
:101250007BFDCDE90C011A99D1E90801CDE908011E
:10126000DDE91201CDE90601DDE9082301F06CFD9D
:10127000CDE90A01DDE90C2301F0D2FACDE90E0136
:101280001A99D1E91801CDE90C01DDE90E2301F02D
:10129000C7FA1A9A42F8880F51601A9800F1300183
:1012A000806BC968CDE90801DDE91401CDE90601CB
:1012B000DDE9082301F048FDCDE90C011A98D0E9D9
:1012C0000A120846CDE90802DDE91201CDE906015E
:1012D000DDE9082301F038FDCDE90A01DDE90C2341
:1012E00001F09EFACDE90E011A98D0E91A120846CB
:1012F000CDE90C020A46DDE90D300F9901F090FAB4
:101300001A9A8832C2E902011A9800F12001006B92
:101310004969CDE90801DDE91801CDE90601DDE9FA
:10132000082301F011FDCDE90C011A99D1E908015A
:10133000CDE90801DDE91601CDE90601DDE9082363
:1013400001F002FDCDE90A01DDE90C2301F068FAA4
:10135000CDE90E011A9800F16001006F4969CDE9ED
:101360000C01DDE90E2301F05BFA1A9A8832C2E91A
:1013700004011A9800F13001806BC968CDE90801B9
:10138000DDE91801CDE90601DDE9082301F0DCFC07
:10139000CDE90C011A9800F12001806AC968CDE9F5
:1013A0000801DDE91601CDE90601DDE9082301F0B8
:1013B000CBFCCDE90A01DDE90C2301F031FACDE9DE
:1013C0000E011A98D0E91E120846CDE90C020A4611
:1013D000DDE90D300F9901F023FA1A9A8832C2E93B
:1013E00006011A9800F19801D1E90201CDE9020144
:1013F0001A98D0E916120846CDE9000201A90EC9D3
:1014000001F0A2FCCDE906011A988830D0E9021259
:101410000846CDE902021A99D1E91401CDE900018B
:10142000DDE9022301F090FCCDE90401DDE90623AA
:1014300001F0F6F9CDE908011A9800F15001806D2C
:10144000C968CDE90601DDE9082301F07DFCCDE99D
:101450000C011A9800F18801D1E90401CDE90201DB
:101460001A98C16D806DCDE90001DDE9022301F01C
:101470006BFCCDE906011A9951F8880F4968CDE94E
:1014800002011A99D1E91401CDE90001DDE9022335
:1014900001F05AFCCDE90401DDE9062301F0C0F9B1
:1014A000CDE908011A98D0E914120846CDE90602E0
:1014B0000A46DDE90730099901F046FCCDE90A0149
:1014C000DDE90C2301F0ACF9CDE90E011A9850F8D2
:1014D000801F42680846CDE90C020A46DDE90D305E
:1014E0000F9901F09DF9CDE910011A98D0E9161273
:1014F0000846CDE908021A9800F18801D1E90201F5
:10150000CDE90601DDE9082301F01EFCCDE90C015F
:101510001A99D1E91401CDE908011A9850F8881FE9
:1015200042680846CDE9060207A90EC901F00CFC85
:10153000CDE90A01DDE90C2301F072F9CDE90E01D4
:10154000DDE9102301F026FA1A9A42F8C80F51601B
:101550001A98D0E916120846CDE908021A9800F147
:101560009801D1E90201CDE90601DDE9082301F086
:10157000EBFBCDE90C011A99D1E91401CDE9080181
:101580001A9800F18801D1E90401CDE90601DDE9ED
:10159000082301F0D9FBCDE90A01DDE90C2301F0B4
:1015A0003FF9CDE90E01DDE9102301F0F3F91A9AB4
:1015B000C832C2E902011A98D0E90012C0E9041247
:1015C0001A98D0E90212C0E906121A9800F1100127
:1015D0008069C968CDE90A011A98D0E9161208464F
:1015E000CDE9080209A90EC901F0AEFBCDE90E0153
:1015F0001A98D0E904120846CDE908021A98416DFC
:10160000006DCDE90601DDE9082301F09DFBCDE980
:101610000A01DDE9202301F0CBFCCDE90C01DDE975
:101620000E2301F0B7FDCDE910011A9951F8C80F4A
:101630004968CDE90C01DDE9102301F085FBCDE916
:101640000E011A98D0E904120846CDE90C020A46A8
:10165000DDE90D300F9901F0E3F81A9A03C21A98E8
:1016600000F1C801D1E90201CDE90C01DDE9102347
:1016700001F06AFBCDE90E011A9800F110018069B2
:10168000C968CDE90C01DDE90E2301F0C9F81A9A09
:10169000C2E902011A9850F8882F41681A9840F858
:1016A000A82F41601A988830D0E902211A98A830F2
:1016B000C0E902211A988830D0E904211A98A8308C
:1016C000C0E904211A988830D0E906121A98A83087
:1016D000C0E906121A99D1E91401CDE90C011A9951
:1016E00051F8C80F4968CDE90A01DDE90C2301F082
:1016F0002BFB00227B4BCDE90E0101F059FCCDE91B
:1017000012011A9951F8C80F496881F00041CDE9DA
:101710000E011A9800F15001806DC968CDE90C01E5
:10172000DDE90E2301F010FBCDE914011A9800F158
:10173000C801D1E9020181F00041CDE90E011A98FA
:10174000D0E914120846CDE90C020A46DDE90D3055
:101750000F9901F0F9FACDE916011A9800F150013C
:10176000806DC968CDE90C011A98C830D0E9021221
:10177000CDE90A1208460BA90EC901F0E5FA0022CC
:10178000584BCDE90E0101F013FCCDE918011A9870
:1017900000F1A801D1E90401CDE90A01DDE9140154
:1017A000CDE90801DDE90A2301F0CEFACDE90E0109
:1017B0001A9951F8A80F4968CDE90A01DDE912012B
:1017C000CDE90801DDE90A2301F0BEFACDE90C01FB
:1017D000DDE90E2301F024F81A9A42F8880F5160CF
:1017E0001A9800F1B801D1E90201CDE90A01DDE959
:1017F0001401CDE90801DDE90A2301F0A5FACDE9DC
:101800000E011A9800F1A801D1E90201CDE90A01FF
:10181000DDE91201CDE90801DDE90A2301F094FABE
:10182000CDE90C01DDE90E2300F0FAFF1A9A8832A7
:10183000C2E902011A9800F1A801D1E90401CDE939
:101840000A01DDE91801CDE90801DDE90A2301F00B
:101850007BFACDE90E011A9850F8A81F4268084695
:10186000CDE90A02DDE91601CDE90801DDE90A2327
:1018700001F06AFACDE90C01DDE90E2300F0D0FF9A
:101880001A9A8832C2E904011A9800F1B801D1E924
:101890000201CDE90A01DDE91801CDE90801DDE920
:1018A0000A2301F051FACDE90E011A9800F1A801BE
:1018B000D1E90201CDE90A01DDE91601CDE908010E
:1018C000DDE90A2301F040FACDE90C01DDE90E2340
:1018D00000F0A6FF1A9A8832C2E906011A9903C9D4
:1018E0001EB010BD0000F03F2DE9FC4780461446B5
:1018F0001D46D8E9006332462046294601F024FA05
:10190000C8E90A01D8E9066332462046294601F0B3
:1019100041FC8146D8E90463324601F03BF8C8E94E
:101920000801C8E90645D8E908633246D8E90291BA
:10193000484601F009FACDE90001D8E90A633246C8
:1019400000F06EFFC8E90A01D8E90A01BDE8FC878A
:101950004FF0000200B5134694469646203922BF48
:10196000A0E80C50A0E80C50B1F12001BFF4F7AF93
:10197000090728BFA0E80C5048BF0CC05DF804EB75
:10198000890028BF40F8042B08BF704748BF20F8E3
:10199000022B11F0804F18BF00F8012B70477047E1
:1019A0007047704710B500F009F8006810BD10B519
:1019B000044600F003F8046010BD000001487047C1
:1019C000704700BFFC02002000487047FC02002066
:1019D0007546FFF7F9FFAE4605006946534620F00D
:1019E0000700854618B020B5FEF7FCFBBDE8204097
:1019F0004FF000064FF000074FF000084FF0000BCB
:101A000021F00701AC46ACE8C009ACE8C009ACE87D
:101A1000C009ACE8C0098D4670470446AFF30080AA
:101A20002046FEF7CCFB000001487047704700BF1E
:101A30000003002001491820ABBEFEE7260002008B
:101A40007047000004490A6822F010020A600A6820
:101A500002430A60704700000020024004490A68FF
:101A600002F038020A600A6802430A607047000008
:101A700000200240F0B5CB780022DC0603F00F0313
:101A800001D58C7823430C880F2714F0FF0F4FF0FB
:101A9000010C1CD0D0F800500E880CFA02F426403D
:101AA000A64210D1960007FA06FE25EA0E0E03FAAA
:101AB00006F5CE7845EA0E05282E00D14461CE7891
:101AC000482E00D10461521C082AE5D305600A881B
:101AD000FF2A1ED94568002202F108060CFA06F416
:101AE0000E882640A64210D1960007FA06FE25EA87
:101AF0000E0E03FA06F5CE7845EA0E05282E00D123
:101B00004461CE78482E00D10461521C082AE3D3E8
:101B10004560F0BDF0B5104D6B68440D260184B2F0
:101B2000C0F30157B440C0F30342032F06D16868E5
:101B300023F0706220F07060686008E0C00203D596
:101B400003209040834300E0A34343F0706201B15F
:101B500022436A60F0BD000000000140416170470F
:101B6000016170470029018802D041F4806101E0E1
:101B700021F48061018070470246938A0020128B15
:101B800043EA024323F07F428A4200D1012070479A
:101B90000029018802D041F0010101E021F001019A
:101BA000018070470029018802D041F4807101E072
:101BB00021F48071018070470029018802D041F42E
:101BC000007101E021F40071018070470246938AA0
:101BD0000020128B21F07F4143EA02430B4200D0E8
:101BE0000120704770B50446808886B00D4620F00D
:101BF0003F0601A800F0A8F825490398B0FBF1F1D1
:101C000089B20E43A680228822F001022280214B55
:101C1000EA689A421CD85200B0FBF2F080B2042865
:101C200000D20420491C2184A083208840F00100B8
:101C3000208020884FF6F53108402988EA88114332
:101C4000014321802889A9880843208106B070BDFE
:101C50006B88A3F53F46FF3E05D102EB4202B0FB85
:101C6000F2F080B206E019235A43B0FBF2F080B2E2
:101C700040F48040020501D140F001004FF496721B
:101C800051434FF47A72B1FBF2F140F40040C9E7DE
:101C900040420F00A0860100008AC0B2704712B116
:101CA00041F0010101E001F0FE0101827047018273
:101CB00070470000024A114001430248016070472A
:101CC00080FFFF1F08ED00E0034A516821F4404106
:101CD000014351607047000000100240044A00298F
:101CE000D16901D0014300E08143D1617047000018
:101CF00000100240044A0029916901D0014300E02C
:101D00008143916170470000001002400B48016858
:101D100041F0010101604168094A114041600168D8
:101D2000084A11400160016821F480210160426885
:101D3000002122F4FE0242608160704700100240E0
:101D40000000FFF8FFFFF6FE30B5204A5168204B37
:101D500011F00C0103D0042901D0082901D003603F
:101D600011E05168022401F4701104EB91415468B0
:101D7000184D14F4803F02D05468A40301D5694380
:101D800000E0594301605168134B01F0F00109096B
:101D90005C5C0168E1404160546804F4E064240A3A
:101DA0001C5D21FA04F48460546804F46054E40A6D
:101DB0001B5DD940C1605268074B02F44042920B50
:101DC0001B1F9A5CB1FBF2F1016130BD00100240B3
:101DD00000127A0000093D006E340008034600201E
:101DE0005909094A012901D1116804E0022901D1E8
:101DF000116A00E0516A03F01F02012393400B4275
:101E000000D00120704700000010024002484068E6
:101E100000F00C007047000000100240034A5168B7
:101E200021F0F001014351607047000000100240B2
:101E30000B490A6822F480320A600A68B0F5803FD4
:101E400022F480220A6007D0B0F5802F03D1086801
:101E500040F4A02008607047086840F48030F9E73B
:101E600000100240034A516821F4E06101435160CF
:101E70007047000000100240034A516821F460518D
:101E800041EAC000506070470010024001490866F6
:101E90007047000000004242034B5A68084322F496
:101EA0007C1210435860704700100240034A51688A
:101EB00021F003010143516070470000001002400F
:101EC00030B50B4C40F2FF153120FFF787FF207033
:101ED0006068401C6060207810B96068A842F3D147
:101EE0003120FFF77BFF002800D0012030BD00002B
:101EF000E80200204FF0E0210428086902D140F0F8
:101F0000040001E020F00400086170474FF0E02178
:101F1000012803D1086940F0010004E0801C04D1CD
:101F2000086920F00100086170470020886170474F
:101F300002460020D1084FF0E023022901D119699F
:101F400000E0D969012393400B4200D00120704783
:101F50004FF0E0210028086902D040F0020001E0C3
:101F600020F00200086170474FF0E021486170479F
:101F700030B5048C24F001040484058B048C42EAFF
:101F8000031325F0F3052B4324F002020A4342F029
:101F900001010383018430BD30B5048C24F01004AA
:101FA0000484058B048C25F4734545EA033343EA26
:101FB000022224F0200343EA011343F010010283BC
:101FC000018430BD0029018802D041F0800102E087
:101FD00040F27F321140018070470029018802D011
:101FE00041F0010102E040F2FE32114001807047F1
:101FF000808E7047008F7047808F7047B0F8400028
:1020000070472DE9F0410D46044608884988AA88A2
:102010002B8940B92046FFF7ABFFE9882046BDE891
:10202000F04100F052B9042808D12046FFF7B4FF70
:10203000E9882046BDE8F04100F04FB90828208C1F
:1020400017D120F480702084A78B268C080227F0FB
:10205000F30142EA03130B4326F40071014341F4F8
:102060008070A3832084E9882046BDE8F04100F019
:102070003DB920F480502084A68B208C120226F4D7
:10208000734642EA033220F40050324340EA013002
:1020900040F48050A2832084E9882046BDE8F041C6
:1020A00000F02CB9002A828901D00A4300E08A435B
:1020B00082817047F0B5028C22F001020284058C07
:1020C0008288038B0C8823F070030E8925F00205AB
:1020D0001C434B882E43CF880C4D33438786A84240
:1020E00002D00B4DA8420DD14D8923F008031D43AA
:1020F00025F004068B8822F4034533438E89CA8970
:102100002E433243828004830384F0BD002C0140BF
:1021100000340140028B22F008020A430283704718
:1021200070B5028C22F010020284028C8388048B2A
:1021300022F0200224F4E0450C88164E240645EADD
:1021400014440D892D0542EA15454A88120545EAD1
:102150001242CD88B042058702D00F4DA84215D15A
:102160004D8922F080022D0542EA15458A8825F026
:102170004005120545EA12428D89C989AD0423F450
:102180000C4343EA1545890445EA114383800483DF
:10219000028470BD002C014000340140028B22F407
:1021A000006242EA012101837047000070B5028C91
:1021B00022F480720284058C8388828B0C8822F042
:1021C00070020E89144325F40075320645EA124662
:1021D0004A88CD88120646EA1242104E8587B042E0
:1021E00002D00F4DA84215D122F400654A8923F48C
:1021F0003043120645EA124222F480658A881206AC
:1022000045EA12428D89C9892D0543EA154509051C
:1022100045EA114383808483028470BD002C014011
:1022200000340140828B22F008020A438283704707
:1022300070B5028C22F480520284058C8288838BD4
:1022400025F4005523F4E0440B880F4E1B0644EAA6
:1022500013430C89240745EA14444D882D0744EAAA
:102260001545CC88B042A0F8404002D0074CA042AF
:1022700005D18989C2F30D04890544EA114282809F
:102280008383058470BD0000002C014000340140B0
:10229000828B22F4006242EA012181837047028925
:1022A00022F070020A4302817047028922F0800204
:1022B000028102890A4302817047028922F00702E3
:1022C000028102890A4302817047028B22F00C02CC
:1022D0000283028B0A4302837047028B22F440621E
:1022E0000283028B42EA012202837047828B22F032
:1022F0000C028283828B0A4382837047828B22F492
:1023000040628283828B42EA01228283704700000E
:1023100010B5028802F08F020280CA884B880488B8
:102320001A43224302808A88064C012382850A8848
:10233000A0420285838202D0034A904201D1097AE9
:10234000018610BD002C014000340140490050EAD4
:10235000C12018BF04204A0D18BF40F0010040F210
:10236000FF72B2EB515F08BF40F00200012808BFC6
:10237000052070472DE9F0414F1E00EBC7010446D0
:10238000D1E9000115461E4637F006020DD02A4657
:10239000334600F0D9FC7F1E04EBC703D3E90023CA
:1023A00000F03EFA37F00602F1D1022F25D0042FBB
:1023B00013D0062F18BFBDE8F0812A46334600F03F
:1023C000C3FCD4E90A2300F02BFA2A46334600F076
:1023D000BBFCD4E9082300F023FA2A46334600F078
:1023E000B3FCD4E9062300F01BFA2A46334600F07A
:1023F000ABFCD4E9042300F013FA2A46334600F07C
:10240000A3FCD4E9022300F00BFA2A46334600F07D
:102410009BFCD4E90023BDE8F04100F001BA0000C4
:10242000024A0020110700F0D8BF000001FDFFFFA5
:102430002DE9F84F04460D4621F000400091744903
:10244000884212DB7349884201DC07D134B120464F
:102450002946BDE8F84F012200F0BFBF6E48002DAD
:10246000CCBF6E496E49BDE8F88F6E49884211DADB
:102470006D498842A8BF4FF0FF366DDA20462946E5
:10248000FFF764FF042808BFFFF7CAFF204629466C
:10249000BDE8F88F6549DFF898A125F0004588422E
:1024A00032DA6449884219DA002632464FF0804316
:1024B0002046294600F0B4F9074688460122204606
:1024C000294600F08AFF0022534600F063FE3A4698
:1024D000434600F05FFA04460D463DE00126002227
:1024E00053462046294600F09BF9074688460022BD
:1024F00053462046294600F04DFE43463A4600F03A
:1025000049FA04460D4627E04B4988421BDADFF8BA
:102510002C810226002243462046294600F014FC66
:102520000022534600F07CF982460F4600224346C3
:102530002046294600F02EFE52463B4600F02AFA7D
:1025400004460D4608E0032622462B4600203C495F
:1025500000F020FA04460D4622462B462046294626
:1025600000F0F2FB8B46824602460B4600F0ECFB85
:1025700007460246334888460B4606217844FFF753
:10258000F9FE52465B4600F0DFFB82462E488B4642
:102590003A46434605217844FFF7ECFE3A46434667
:1025A00000F0D2FB02460B46002E504659460CDA8C
:1025B00000F036F922462B4600F0C6FB01B0224659
:1025C0002B46BDE8F04F00F0F3BC00F029F922469D
:1025D0002B4600F0B9FB1D4A7A4402EBC603D3E94F
:1025E000002300F0D7FD22462B4600F0D3FD184A09
:1025F0007A4402EBC603D3E9002300F0D9FC009A29
:10260000002AB4BF81F00041BDE8F88FBDE8F88F23
:10261000000010440000F07F182D4454FB21F93FC6
:10262000FB21F9BF0000DC3F0000203E0000F33F2B
:102630000000F03F0000E63F008003400000F83F4C
:102640000000F0BF680F0000260F0000C40E00005D
:102650008C0E00002DE9F04D9446CCF1000423F0DF
:1026600000464CEA0404524F46EAD47498468A461F
:1026700021F00042BC4206D8454240EA050442EA45
:10268000D474BC4204D9BDE8F04D624600F0C8B82D
:10269000A8F14055A5F17F6555EA0C040BD0022442
:1026A00004EAA874434DDFF810E144EADA7452EA10
:1026B000000B04D00CE0BDE8F04DFFF7B9BE002CD4
:1026C00014BF012CBDE8F08D022C30D0032C32D089
:1026D00056EA0C0B0AD0BE4220D1BA4209D126F0EC
:1026E000804622F080423346114617E000291ADB6B
:1026F00025E0DFF8C8B0FB44002C04BFDBE9000193
:10270000BDE8F08D012C02BFDBE9000181F0004142
:10271000BDE8F08D022C0AD0032C0CD0BA4212D1A5
:10272000BAF1000F0BDA23482549BDE8F08D2846A1
:102730002449BDE8F08D28467146BDE8F08D1D485E
:102740002149BDE8F08D921B12153C2AC4BF1948DF
:102750001D490EDCB8F1000FBEBF12F13C0F002086
:10276000014606DB624600F015F921F00041FFF753
:102770005FFE002C08BFBDE8F08D012C04BF81F086
:102780000041BDE8F08D114A114B022C07D000F03A
:1027900001FD2A46BDE8F04D0A4B00F0FBBC00F0FD
:1027A000F9FC2A46BDE8F04D064B00F001BC0000E4
:1027B0000000F07F182D4454FB2109C01E0E0000BC
:1027C000FB21F9BFFB210940FB21F93F075C1433D2
:1027D00026A6A13C2DE9F04106460F4600F0F4FB89
:1027E00004000D4618BF0120284320F00040C0F12E
:1027F0007F6010F1E0400ED5002E14BF01200020B4
:10280000384320F00040C0F17F6010F1E0405CBF31
:102810000120FFF7CCF820462946BDE8F0810000F2
:1028200010B591EA030F48BF83F0004300F1BA846A
:10283000841A71EB030E05D2121943EB0E03001B31
:1028400061EB0E01DFF820C14FEA1154A4EB135ED7
:102850001CEA430F18BF9CEA445F71D023EA0C03C3
:10286000DEF1200C21EA045143F4801332D322FA22
:102870000EFC10EB0C0023FA0EFC41EB0C01CEF128
:10288000200C03FA0CFC10EB0C0051F10001B1F527
:10289000801FCEF1200C32D201EB0451BDE8104074
:1028A00012FA0CF258BF7047401C38BF5FEA420270
:1028B00018BF7047002814BF20F0010041F100014B
:1028C0004FEA410313F5001F38BF7047A1F1C04123
:1028D00000F032BB012A43EB0302AEF1200EDEF121
:1028E0001F0C32BF4FF0000C23FA0EF310EB030065
:1028F00041EB0451B4EB115FD0D0A1EB045101F5D1
:102900008011490801EB0451BDE810405FEA300036
:102910000CD350F1000038BF12FA0CFC06D1C9E705
:10292000401C38BF5FEA4202CAD1C3E74FEA410305
:1029300013F5001F38BF7047A1F1C04100F0FCBA89
:102940009CEA445F08D0BDE8104011EA5C0F04BF68
:1029500001F0004100207047BDE8104070B500F064
:102960009DFA00BF64FBBE3E0000E0FF02494FF04D
:10297000000000F000BD00BF0000F87F491058BF04
:10298000C1F140415B1058BFC3F140438B42EFF3AC
:10299000008070472DE9C04130B4DFF8A0C23CEAA6
:1029A000111418BF3CEA131400F0EC8081EA03050F
:1029B0001CEA111444EAD57418BF1CEA131500F080
:1029C000C780A4EB05044FF0004545EAC12145EA64
:1029D000C32341EA505143EA525304F17F749942B0
:1029E00004F500344FEAC0204FEAC22208BF9042EB
:1029F00000F09C804FEA13650FF24016765D4FEAB7
:102A0000134506FB05F7C7F1807706FB07F74FEA8A
:102A1000D737A7FB03687642C8F58038A7FB06CEF8
:102A200038BFA8F1010807FB08E64FF0000EA6FB2F
:102A3000028CE6FB03CEDCF1000CCEF1004E38BF79
:102A4000AEF1010EA6FB0C584FF000074FF0000549
:102A5000E6FB0E87A1FB08C6A0FB07CE16EB0E0611
:102A600045F10005E1FB076515F1E04E7EBFA4F5D9
:102A700080345FEA46066D4116F1800745F1000596
:102A80004FEA17274FEA066647EA0567A6F1DE46D2
:102A9000B6F1805F4FEA15251FD9384624F0010CA6
:102AA00005EBC471BCF1FE6F01EB0C1102D8F0BC58
:102AB000BDE8008124425CBF01F5801E9EEAC47F10
:102AC00002D4F0BCBDE80081244238D4F0BCA1F1AE
:102AD000C041BDE8004100F02FBA4FEAD22242EADD
:102AE00043524FEAD323A7FB02864FEAD02040EAA5
:102AF000415007FB03661EEA0E0F4FEAD12105FB8A
:102B0000026658BFA6EB0056B6EB00564FEA520ECF
:102B10004EEAC37E18EB0E0E56EB530EBDD518EBE6
:102B200002085E417F1C55F10005B6E74FF48015A1
:102B30004FF000074FF000064FF00008ADE7F0BC83
:102B40004FF0000001F1C04101F00041BDE80081FB
:102B500011EA0C1F0CEA131500D00CE013EA0C1F4D
:102B600000F025804FF00000F0BC81EA030101F085
:102B70000041BDE80081F0BCBDE8004181EA0301ED
:102B800000F0DAB9F0BCBDE8004170B500F086F99C
:102B9000097EFC3E00F007B881EA03014FF0000017
:102BA00001F00041704781EA030100F0C5B9F0BCB3
:102BB000BDE800414FF0000021497047FFFDFBF9DF
:102BC000F7F5F4F2F0EEEDEBE9E8E6E4E3E1E0DE60
:102BD000DDDBDAD8D7D5D4D3D1D0CFCDCCCBCAC8D2
:102BE000C7C6C5C4C2C1C0BFBEBDBCBBBAB9B8B7F9
:102BF000B6B5B4B3B2B1B0AFAEADACABAAA9A8A8EC
:102C0000A7A6A5A4A3A3A2A1A09F9F9E9D9C9C9BB9
:102C10009A99999897979695959493939291919064
:102C20008F8F8E8E8D8C8C8B8B8A898988888787F5
:102C30008685858484838382828181800000FF076A
:102C40000000F87F4FEA41034FEA5353A3F5806336
:102C5000D3F11E03C8BFD3F1210C0CDD4FF00042AD
:102C600042EAC12242EA505232FA03FC8CEAE17C89
:102C7000ACEBE1707047102BC4BF0020704703F528
:102C8000787CBCF1FF3F04D06FF0004282EA210063
:102C9000704770B500F002F9499224800020704717
:102CA000F2E710F0004248BF4042B0FA80F310FA59
:102CB00003F10AD0C3F11D0303F580634FEA4150CD
:102CC00002EB035202EBD12170474FF00000704736
:102CD00051EA030C17D41CF5801F58BFBCF5801FA8
:102CE00000F10680994218BF704708BF90427047B4
:102CF00007D711F5801F58BF13F5801F19D49942CB
:102D00007047894270471CF5801F08D5BCF5801FAD
:102D1000F7D58B4218BF704708BF824270474FF407
:102D2000001C1CEB410F38BF1CEB430F01D28B4240
:102D3000704770B500F0B2F8922449004FF000518E
:102D40004FF08053FFF71ABEDFF848C170B51CEA98
:102D5000111E1EBF1CEA13159EEA0C0F95EA0C0FFC
:102D600000F06F8081EA030423EA4C134EEAD47E1C
:102D700021EA4C1141F4801143F48013AE44A1FBCD
:102D8000024CA0FB0365AEF17F7E361955EB0C05B6
:102D9000A1FB034C4CF10003A0FB021C16EB0C063C
:102DA000654153F10003094218BF46F0010613F4D0
:102DB000007F0BD14FEA03314FEA0530340341EA7B
:102DC000155140EA16506FF003020AE04FEAC321A2
:102DD0004FEAC520F40241EA555140EA56506FF0DF
:102DE000020202EB2E4201EB025585EACE710AD0B7
:102DF0005FEA440C18BF24F0004450F1000041F198
:102E0000000120EAD47040F2FE7C624500D270BD21
:102E1000A84214BF4FF080444FF04044002E08BF3A
:102E20000024BEF1806FA8BFA1F1C041BDE8704091
:102E300080F282804FF0000001F1C04101F00041BA
:102E400070479EEA0C0F0CEA131518BF95EA0C0F99
:102E500006D04FF0000081EA030E0EF0004170BD75
:102E600000F01CF88900013E00F007B800F009B836
:102E70004FEA430C5FEA5C5C08D081EA030100F092
:102E80005BB84FEA410C5FEA5C5CF6D14FF00000A2
:102E9000014970470000FF070000F87F0EF1020EA5
:102EA0002EF0030E5EF8046B364205D4012A43EB84
:102EB000030515F5001F12D8012841EB010C1CF584
:102EC000001F0CD80ED14FEAD17C15F5001F0CEB7A
:102ED0004C0C0CF1020C08BF4CEBD37C04E04FF01F
:102EE000080C01E04FEAD37C0CEB4C0526FA05F602
:102EF00006F00706B6F1040C06D20EEB860CBDE810
:102F000070404CF0010C6047DFE80CF0090B020246
:102F10004FF000414FF00000A1F5002170BD1946AF
:102F20001046012851EB010418BFD4F5001484BFEA
:102F3000002001F0004170BD0808A0F500114FEA23
:102F40003101704753EA010C17D41CF5801F58BF9C
:102F5000BCF5801F00F106808B4218BF704708BF88
:102F60008242704707D713F5801F58BF11F5801FA5
:102F700019D48B4270479B4270471CF5801F08D5BF
:102F8000BCF5801FF7D5994218BF704708BF904223
:102F900070474FF4001C1CEB430F38BF1CEB410F74
:102FA00001D2994270470FB40CBC03BCFFF7C1BEFD
:102FB00091EA030F10B581F000413FF539AC83F081
:102FC000004300F0EFB800002DE9F04101F5801C4E
:102FD000BCF5001FC0F2C3804FEA115C21EA0C511E
:102FE0000CF1FD0C41F480115FEA5C0C0CF5C07C27
:102FF00001D3400049413DA4890241EA9051870232
:103000008E0E0A0CA45D04FB04F602FB06F6C6F164
:103010004046A4FB0662F60D46EA422606FB06F48D
:10302000A4FB01235242C3F1404338BF5B1EA6FB01
:1030300002420024E6FB0324D20B42EA4446A6FBEC
:103040000623A1FB02E2A3FB07E4A4184FF0000251
:1030500052F10002E3FB01426442C2F1404E38BF2C
:10306000AEF1010EA6FB04234FF00002E6FB0E3288
:10307000A2FB03464FF00004B61954F10004E2FB32
:103080000264A1FB06E6A4FB07E816EB08064FF076
:10309000000858F10008E4FB01687642C8F1405886
:1030A00038BFA8F10108A2FB06E4A3FB08E52D192F
:1030B0004FF0000454F10004E2FB0854A1FB05E6C4
:1030C000A7FB04E818EB06084FF0000656F10006CF
:1030D000E1FB048618F1200556F10006A809A8F1C5
:1030E0001B08B10908F03F08B8F10A0F40EA8660F2
:1030F0001CD901EB0C51BDE8F08100BFFCF5EEE8F6
:10310000E2DDD8D3CFCBC7C3C0BDB9B6B4B1AEAC86
:10311000A9A7A5A3A19F9D9B9A9896959392908FFE
:103120008D8C8B898887868584838281A0FB00684B
:1031300000FB01F208EB4208B8EB872807D53418EA
:1031400058EB0104D5D5401C51F10001D1E7341AE8
:1031500078EB0104CDD4401E71F10001C9E75FEAAC
:103160004C0C5FEA9C5C0DD105D34FF0000001F0E0
:103170000041BDE8F081BDE8F04170B5FFF78EFE7B
:103180006DDBFFBEBDE8F0414FF000000049704725
:103190000000F87F10B591EA030F48BF83F00043A9
:1031A0003FF546AB841A71EB030E07D212198EF06D
:1031B000004E43EB0E03001B61EB0E01DFF8A4C1D0
:1031C0004FEA1154A4EB135E1CEA430F18BF9CEAAC
:1031D000445F00F0B08023EA6C03524221EA0451BC
:1031E000C3EB6C0338BF5B1EDEF1200C25D322FA43
:1031F0000EFC10EB0C0043FA0EFC41EB0C01CEF17F
:10320000200C03FA0CFC10EB0C0051F10001CEF184
:10321000200C29D401EB0451BDE8104012FA0CF245
:1032200058BF7047401C1CBFB2F1004F70470028C8
:103230000CBF491C20F00100704712EB020C43EB5D
:10324000030218BF4FF0010C4CEA4202AEF1200E0F
:10325000DEF11E0C54D943FA0EFC10EB0C0051F1B8
:10326000FF31CEF11E0CD5D50CF1010C12FA0CFC7D
:10327000404141EB010101EB445E5FEA5E5E10D923
:1032800001EB0451BDE8104010EBDC7038BFBCF11D
:10329000004F18BF704700280CBF491C20F00100E8
:1032A000704730D24FEAD42E11F5001124F4006497
:1032B0001BD0B1FA81F20B3AA41AA41ED2F120035A
:1032C000914030FA03F31943904001EBCE71002C8A
:1032D00001EB0451BDE81040A8BF704701F1C041A7
:1032E0004FF0000001F000417047B0FA80F310FA8F
:1032F00003F100D110BDE41A173C4805C90AE4E700
:1033000001EB045110BD491001EB0451BDE8104020
:103310004FEA300002E04FF0000170474A0008BF5A
:103320000042F8D0B2F5001F28BF704701F00041FD
:103330004FF0000070479CEA445F07D0BDE81040A2
:1033400011EA5C0F04BF002100207047BDE8104067
:1033500070B5FFF7A3FD00BF40DFF63E83F00041EC
:10336000104670470000E0FF10B5FEF75DFB4FF020
:103370000001016010BD0CF00F03092B08BF0820ED
:1033800000F05B800A2B0BD0082B18BF704708BFDA
:103390001CF0400F0AD04FF000004FF000017047C2
:1033A0001CF0400F18BF4FF0004070471CF0100F8A
:1033B00008D020F0704300F07F4242EAD3014FEA88
:1033C0004370704700F0604021F07F4242EA000203
:1033D00001F07F4040EA727070474FF0FF0C4CF4F0
:1033E000E06C1CEA11531CBF9CEA030C9445C2BF5D
:1033F000DA4201EB02517047002B0DD0BCF1000FF7
:103400000FD0002A01F00041A4BF41F0E04141F09B
:103410007F614FF00000704701F000414FF0000065
:10342000704750EA01334FF09B0C18BF4CF0806C92
:103430007FF49CAAAFF3008070471CF4801F11D06A
:103440001CF4E02F03D06FEACC31490070474FF0F5
:103450004050EFF3008222F0704242EA000282F311
:10346000008870474FF00000704702040608000013
:10347000000001020304010203040607080900001A
:103480004FBB610567ACDD3F182D4454FB21E93F7C
:103490009BF681D20B73EF3F182D4454FB21F93F6B
:1034A000E2652F227F2B7A3C075C143326A6813CF1
:1034B000BDCBF07A8807703C075C143326A6913C9C
:1034C000C4EB98999999C9BF711623FEC671BCBF08
:1034D0006D9A74AFF2B0B3BF9AFDDE522DDEADBF70
:1034E0002F6C6A2C44B4A2BF0D5555555555D53F88
:1034F000FF8300922449C23F6E204CC5CD45B73FA3
:10350000513DD0A0660DB13FEB0D76244B7BA93F1A
:1035100011DA22E33AAD903F000000000000000005
:103520004035000800000020F002000028010008DB
:10353000A8350008F0020020700200008401000895
:1035400041CBE8030441CBDC05040196080B15F0E0
:103550003F7B14AE47E17A94BF18EA3F1881D80840
:10356000FA7E6ABC749368208918681979E9263153
:1035700008ACAC3F091B9E5E29CB803F5839B4C8CC
:1035800076BE8FBF0808081FE4141DC9E53FCC2094
:1035900009FDD8011F080A150440FCA9F1D24D62AB
:0835A00040D8093E3001120081
:04000005080000ED02
:00000001FF
